{"abi":[{"type":"constructor","inputs":[],"stateMutability":"nonpayable"},{"type":"function","name":"changeDelegate","inputs":[{"name":"_newDelegate","type":"address","internalType":"address"}],"outputs":[],"stateMutability":"nonpayable"},{"type":"function","name":"delegate","inputs":[],"outputs":[{"name":"","type":"address","internalType":"address"}],"stateMutability":"view"},{"type":"function","name":"owner","inputs":[],"outputs":[{"name":"","type":"address","internalType":"address"}],"stateMutability":"view"},{"type":"function","name":"receiveToken","inputs":[{"name":"_token","type":"address","internalType":"address"},{"name":"amount","type":"uint256","internalType":"uint256"}],"outputs":[],"stateMutability":"nonpayable"},{"type":"function","name":"renounceOwnership","inputs":[],"outputs":[],"stateMutability":"nonpayable"},{"type":"function","name":"tokenExist","inputs":[{"name":"","type":"address","internalType":"address"}],"outputs":[{"name":"","type":"bool","internalType":"bool"}],"stateMutability":"view"},{"type":"function","name":"tokens","inputs":[{"name":"","type":"address","internalType":"address"}],"outputs":[{"name":"","type":"uint256","internalType":"uint256"}],"stateMutability":"view"},{"type":"function","name":"tokens_list","inputs":[{"name":"","type":"uint256","internalType":"uint256"}],"outputs":[{"name":"","type":"address","internalType":"address"}],"stateMutability":"view"},{"type":"function","name":"transferOwnership","inputs":[{"name":"newOwner","type":"address","internalType":"address"}],"outputs":[],"stateMutability":"nonpayable"},{"type":"function","name":"withdrawFees","inputs":[{"name":"tokenOut","type":"address","internalType":"address"},{"name":"_swapRouter","type":"address","internalType":"contract ISwapRouter"},{"name":"_poolFee","type":"uint24","internalType":"uint24"}],"outputs":[],"stateMutability":"nonpayable"},{"type":"event","name":"OwnershipTransferred","inputs":[{"name":"previousOwner","type":"address","indexed":true,"internalType":"address"},{"name":"newOwner","type":"address","indexed":true,"internalType":"address"}],"anonymous":false},{"type":"event","name":"newDelegate","inputs":[{"name":"newDelegate","type":"address","indexed":true,"internalType":"address"}],"anonymous":false},{"type":"event","name":"received","inputs":[{"name":"token","type":"address","indexed":true,"internalType":"address"},{"name":"amount","type":"uint256","indexed":true,"internalType":"uint256"},{"name":"time","type":"uint256","indexed":true,"internalType":"uint256"}],"anonymous":false},{"type":"event","name":"withdrawal","inputs":[{"name":"token","type":"address","indexed":true,"internalType":"address"},{"name":"amount","type":"uint256","indexed":true,"internalType":"uint256"},{"name":"time","type":"uint256","indexed":true,"internalType":"uint256"}],"anonymous":false},{"type":"error","name":"OwnableInvalidOwner","inputs":[{"name":"owner","type":"address","internalType":"address"}]},{"type":"error","name":"OwnableUnauthorizedAccount","inputs":[{"name":"account","type":"address","internalType":"address"}]},{"type":"error","name":"ReentrancyGuardReentrantCall","inputs":[]},{"type":"error","name":"SafeERC20FailedOperation","inputs":[{"name":"token","type":"address","internalType":"address"}]}],"bytecode":{"object":"0x608060405234801561000f575f5ffd5b50335f73ffffffffffffffffffffffffffffffffffffffff168173ffffffffffffffffffffffffffffffffffffffff1603610081575f6040517f1e4fbdf700000000000000000000000000000000000000000000000000000000815260040161007891906101dd565b60405180910390fd5b610090816100dd60201b60201c565b50600180819055503360055f6101000a81548173ffffffffffffffffffffffffffffffffffffffff021916908373ffffffffffffffffffffffffffffffffffffffff1602179055506101f6565b5f5f5f9054906101000a900473ffffffffffffffffffffffffffffffffffffffff169050815f5f6101000a81548173ffffffffffffffffffffffffffffffffffffffff021916908373ffffffffffffffffffffffffffffffffffffffff1602179055508173ffffffffffffffffffffffffffffffffffffffff168173ffffffffffffffffffffffffffffffffffffffff167f8be0079c531659141344cd1fd0a4f28419497f9722a3daafe3b4186f6b6457e060405160405180910390a35050565b5f73ffffffffffffffffffffffffffffffffffffffff82169050919050565b5f6101c78261019e565b9050919050565b6101d7816101bd565b82525050565b5f6020820190506101f05f8301846101ce565b92915050565b611624806102035f395ff3fe608060405234801561000f575f5ffd5b506004361061009c575f3560e01c806397627672116100645780639762767214610144578063c89e436114610160578063e38296e41461017e578063e48603391461019a578063f2fde38b146101ca5761009c565b80630e52dff3146100a05780635050c4fb146100d0578063715018a6146101005780638da5cb5b1461010a57806397235a1e14610128575b5f5ffd5b6100ba60048036038101906100b59190611066565b6101e6565b6040516100c791906110d0565b60405180910390f35b6100ea60048036038101906100e59190611113565b610221565b6040516100f79190611158565b60405180910390f35b61010861023e565b005b610112610251565b60405161011f91906110d0565b60405180910390f35b610142600480360381019061013d9190611171565b610278565b005b61015e60048036038101906101599190611222565b610481565b005b610168610921565b60405161017591906110d0565b60405180910390f35b61019860048036038101906101939190611113565b610946565b005b6101b460048036038101906101af9190611113565b610a63565b6040516101c19190611281565b60405180910390f35b6101e460048036038101906101df9190611113565b610a78565b005b600481815481106101f5575f80fd5b905f5260205f20015f915054906101000a900473ffffffffffffffffffffffffffffffffffffffff1681565b6003602052805f5260405f205f915054906101000a900460ff1681565b610246610afc565b61024f5f610b83565b565b5f5f5f9054906101000a900473ffffffffffffffffffffffffffffffffffffffff16905090565b5f73ffffffffffffffffffffffffffffffffffffffff168273ffffffffffffffffffffffffffffffffffffffff16036102af575f5ffd5b5f8290506102e03330848473ffffffffffffffffffffffffffffffffffffffff16610c44909392919063ffffffff16565b8160025f8573ffffffffffffffffffffffffffffffffffffffff1673ffffffffffffffffffffffffffffffffffffffff1681526020019081526020015f205f82825461032c91906112c7565b9250508190555060035f8473ffffffffffffffffffffffffffffffffffffffff1673ffffffffffffffffffffffffffffffffffffffff1681526020019081526020015f205f9054906101000a900460ff1661043757600483908060018154018082558091505060019003905f5260205f20015f9091909190916101000a81548173ffffffffffffffffffffffffffffffffffffffff021916908373ffffffffffffffffffffffffffffffffffffffff160217905550600160035f8573ffffffffffffffffffffffffffffffffffffffff1673ffffffffffffffffffffffffffffffffffffffff1681526020019081526020015f205f6101000a81548160ff0219169083151502179055505b42828473ffffffffffffffffffffffffffffffffffffffff167f919f01b2fae91a10a574b884ccf4d49e0a6509abe979b9c93830882cd2165d0260405160405180910390a4505050565b610489610afc565b610491610cc6565b5f6001600480549050036106bf575f61056160045f815481106104b7576104b66112fa565b5b905f5260205f20015f9054906101000a900473ffffffffffffffffffffffffffffffffffffffff168660025f60045f815481106104f7576104f66112fa565b5b905f5260205f20015f9054906101000a900473ffffffffffffffffffffffffffffffffffffffff1673ffffffffffffffffffffffffffffffffffffffff1673ffffffffffffffffffffffffffffffffffffffff1681526020019081526020015f20545f8888610d0c565b905042818673ffffffffffffffffffffffffffffffffffffffff167f2e4d3189c330c7bfcce65176d6c0b1b49698fd9638f1dbba37a5bfb7e55a283360405160405180910390a45f60025f60045f815481106105c0576105bf6112fa565b5b905f5260205f20015f9054906101000a900473ffffffffffffffffffffffffffffffffffffffff1673ffffffffffffffffffffffffffffffffffffffff1673ffffffffffffffffffffffffffffffffffffffff1681526020019081526020015f208190555060035f60045f8154811061063c5761063b6112fa565b5b905f5260205f20015f9054906101000a900473ffffffffffffffffffffffffffffffffffffffff1673ffffffffffffffffffffffffffffffffffffffff1673ffffffffffffffffffffffffffffffffffffffff1681526020019081526020015f205f6101000a81549060ff021916905560045f6106b99190610ff6565b50610913565b60016004805490501115610912575f5f90505b6004805490508110156108be576107a0600482815481106106f6576106f56112fa565b5b905f5260205f20015f9054906101000a900473ffffffffffffffffffffffffffffffffffffffff168660025f60048681548110610736576107356112fa565b5b905f5260205f20015f9054906101000a900473ffffffffffffffffffffffffffffffffffffffff1673ffffffffffffffffffffffffffffffffffffffff1673ffffffffffffffffffffffffffffffffffffffff1681526020019081526020015f20545f8888610d0c565b826107ab91906112c7565b91505f60025f600484815481106107c5576107c46112fa565b5b905f5260205f20015f9054906101000a900473ffffffffffffffffffffffffffffffffffffffff1673ffffffffffffffffffffffffffffffffffffffff1673ffffffffffffffffffffffffffffffffffffffff1681526020019081526020015f208190555060035f60048381548110610841576108406112fa565b5b905f5260205f20015f9054906101000a900473ffffffffffffffffffffffffffffffffffffffff1673ffffffffffffffffffffffffffffffffffffffff1673ffffffffffffffffffffffffffffffffffffffff1681526020019081526020015f205f6101000a81549060ff021916905580806001019150506106d2565b5060045f6108cc9190610ff6565b42818573ffffffffffffffffffffffffffffffffffffffff167f2e4d3189c330c7bfcce65176d6c0b1b49698fd9638f1dbba37a5bfb7e55a283360405160405180910390a45b5b5061091c610f4b565b505050565b60055f9054906101000a900473ffffffffffffffffffffffffffffffffffffffff1681565b61094e610afc565b5f73ffffffffffffffffffffffffffffffffffffffff168173ffffffffffffffffffffffffffffffffffffffff16036109bc576040517f08c379a00000000000000000000000000000000000000000000000000000000081526004016109b390611381565b60405180910390fd5b8060055f6101000a81548173ffffffffffffffffffffffffffffffffffffffff021916908373ffffffffffffffffffffffffffffffffffffffff16021790555060055f9054906101000a900473ffffffffffffffffffffffffffffffffffffffff1673ffffffffffffffffffffffffffffffffffffffff167fe12a74126c56329f27a40ba01f63bde2abd49d0d6f807b1b93df662fb8c96a1560405160405180910390a250565b6002602052805f5260405f205f915090505481565b610a80610afc565b5f73ffffffffffffffffffffffffffffffffffffffff168173ffffffffffffffffffffffffffffffffffffffff1603610af0575f6040517f1e4fbdf7000000000000000000000000000000000000000000000000000000008152600401610ae791906110d0565b60405180910390fd5b610af981610b83565b50565b610b04610f54565b73ffffffffffffffffffffffffffffffffffffffff16610b22610251565b73ffffffffffffffffffffffffffffffffffffffff1614610b8157610b45610f54565b6040517f118cdaa7000000000000000000000000000000000000000000000000000000008152600401610b7891906110d0565b60405180910390fd5b565b5f5f5f9054906101000a900473ffffffffffffffffffffffffffffffffffffffff169050815f5f6101000a81548173ffffffffffffffffffffffffffffffffffffffff021916908373ffffffffffffffffffffffffffffffffffffffff1602179055508173ffffffffffffffffffffffffffffffffffffffff168173ffffffffffffffffffffffffffffffffffffffff167f8be0079c531659141344cd1fd0a4f28419497f9722a3daafe3b4186f6b6457e060405160405180910390a35050565b610cc0848573ffffffffffffffffffffffffffffffffffffffff166323b872dd868686604051602401610c799392919061139f565b604051602081830303815290604052915060e01b6020820180517bffffffffffffffffffffffffffffffffffffffffffffffffffffffff8381831617835250505050610f5b565b50505050565b600260015403610d02576040517f3ee5aeb500000000000000000000000000000000000000000000000000000000815260040160405180910390fd5b6002600181905550565b5f5f6040518061010001604052808973ffffffffffffffffffffffffffffffffffffffff1681526020018873ffffffffffffffffffffffffffffffffffffffff1681526020018462ffffff16815260200160055f9054906101000a900473ffffffffffffffffffffffffffffffffffffffff1673ffffffffffffffffffffffffffffffffffffffff1681526020014281526020018781526020018681526020015f73ffffffffffffffffffffffffffffffffffffffff1681525090505f8890508073ffffffffffffffffffffffffffffffffffffffff1663095ea7b3865f6040518363ffffffff1660e01b8152600401610e07929190611416565b6020604051808303815f875af1158015610e23573d5f5f3e3d5ffd5b505050506040513d601f19601f82011682018060405250810190610e479190611467565b508073ffffffffffffffffffffffffffffffffffffffff1663095ea7b386896040518363ffffffff1660e01b8152600401610e83929190611492565b6020604051808303815f875af1158015610e9f573d5f5f3e3d5ffd5b505050506040513d601f19601f82011682018060405250810190610ec39190611467565b508473ffffffffffffffffffffffffffffffffffffffff1663414bf389836040518263ffffffff1660e01b8152600401610efd9190611595565b6020604051808303815f875af1158015610f19573d5f5f3e3d5ffd5b505050506040513d601f19601f82011682018060405250810190610f3d91906115c3565b925050509695505050505050565b60018081905550565b5f33905090565b5f5f60205f8451602086015f885af180610f7a576040513d5f823e3d81fd5b3d92505f519150505f8214610f93576001811415610fae565b5f8473ffffffffffffffffffffffffffffffffffffffff163b145b15610ff057836040517f5274afe7000000000000000000000000000000000000000000000000000000008152600401610fe791906110d0565b60405180910390fd5b50505050565b5080545f8255905f5260205f20908101906110119190611014565b50565b5b8082111561102b575f815f905550600101611015565b5090565b5f5ffd5b5f819050919050565b61104581611033565b811461104f575f5ffd5b50565b5f813590506110608161103c565b92915050565b5f6020828403121561107b5761107a61102f565b5b5f61108884828501611052565b91505092915050565b5f73ffffffffffffffffffffffffffffffffffffffff82169050919050565b5f6110ba82611091565b9050919050565b6110ca816110b0565b82525050565b5f6020820190506110e35f8301846110c1565b92915050565b6110f2816110b0565b81146110fc575f5ffd5b50565b5f8135905061110d816110e9565b92915050565b5f602082840312156111285761112761102f565b5b5f611135848285016110ff565b91505092915050565b5f8115159050919050565b6111528161113e565b82525050565b5f60208201905061116b5f830184611149565b92915050565b5f5f604083850312156111875761118661102f565b5b5f611194858286016110ff565b92505060206111a585828601611052565b9150509250929050565b5f6111b9826110b0565b9050919050565b6111c9816111af565b81146111d3575f5ffd5b50565b5f813590506111e4816111c0565b92915050565b5f62ffffff82169050919050565b611201816111ea565b811461120b575f5ffd5b50565b5f8135905061121c816111f8565b92915050565b5f5f5f606084860312156112395761123861102f565b5b5f611246868287016110ff565b9350506020611257868287016111d6565b92505060406112688682870161120e565b9150509250925092565b61127b81611033565b82525050565b5f6020820190506112945f830184611272565b92915050565b7f4e487b71000000000000000000000000000000000000000000000000000000005f52601160045260245ffd5b5f6112d182611033565b91506112dc83611033565b92508282019050808211156112f4576112f361129a565b5b92915050565b7f4e487b71000000000000000000000000000000000000000000000000000000005f52603260045260245ffd5b5f82825260208201905092915050565b7f496e76616c69642064656c6567617465206164647265737300000000000000005f82015250565b5f61136b601883611327565b915061137682611337565b602082019050919050565b5f6020820190508181035f8301526113988161135f565b9050919050565b5f6060820190506113b25f8301866110c1565b6113bf60208301856110c1565b6113cc6040830184611272565b949350505050565b5f819050919050565b5f819050919050565b5f6114006113fb6113f6846113d4565b6113dd565b611033565b9050919050565b611410816113e6565b82525050565b5f6040820190506114295f8301856110c1565b6114366020830184611407565b9392505050565b6114468161113e565b8114611450575f5ffd5b50565b5f815190506114618161143d565b92915050565b5f6020828403121561147c5761147b61102f565b5b5f61148984828501611453565b91505092915050565b5f6040820190506114a55f8301856110c1565b6114b26020830184611272565b9392505050565b6114c2816110b0565b82525050565b6114d1816111ea565b82525050565b6114e081611033565b82525050565b6114ef81611091565b82525050565b61010082015f82015161150a5f8501826114b9565b50602082015161151d60208501826114b9565b50604082015161153060408501826114c8565b50606082015161154360608501826114b9565b50608082015161155660808501826114d7565b5060a082015161156960a08501826114d7565b5060c082015161157c60c08501826114d7565b5060e082015161158f60e08501826114e6565b50505050565b5f610100820190506115a95f8301846114f5565b92915050565b5f815190506115bd8161103c565b92915050565b5f602082840312156115d8576115d761102f565b5b5f6115e5848285016115af565b9150509291505056fea264697066735822122008870bf6207234c2d33a1b7f128ff87f92dead450318c5659db8dc55ac1f47b964736f6c634300081e0033","linkReferences":{}},"methodIdentifiers":{"changeDelegate(address)":"e38296e4","delegate()":"c89e4361","owner()":"8da5cb5b","receiveToken(address,uint256)":"97235a1e","renounceOwnership()":"715018a6","tokenExist(address)":"5050c4fb","tokens(address)":"e4860339","tokens_list(uint256)":"0e52dff3","transferOwnership(address)":"f2fde38b","withdrawFees(address,address,uint24)":"97627672"},"id":38}