{"abi":[{"type":"constructor","inputs":[{"name":"_swapRouter","type":"address","internalType":"contract ISwapRouter"},{"name":"_feeBps","type":"uint256","internalType":"uint256"},{"name":"_feeRecipient","type":"address","internalType":"address"}],"stateMutability":"nonpayable"},{"type":"function","name":"feeBps","inputs":[],"outputs":[{"name":"","type":"uint256","internalType":"uint256"}],"stateMutability":"view"},{"type":"function","name":"feeRecipient","inputs":[],"outputs":[{"name":"","type":"address","internalType":"address"}],"stateMutability":"view"},{"type":"function","name":"owner","inputs":[],"outputs":[{"name":"","type":"address","internalType":"address"}],"stateMutability":"view"},{"type":"function","name":"pause","inputs":[],"outputs":[],"stateMutability":"nonpayable"},{"type":"function","name":"paused","inputs":[],"outputs":[{"name":"","type":"bool","internalType":"bool"}],"stateMutability":"view"},{"type":"function","name":"poolFee","inputs":[],"outputs":[{"name":"","type":"uint24","internalType":"uint24"}],"stateMutability":"view"},{"type":"function","name":"renounceOwnership","inputs":[],"outputs":[],"stateMutability":"nonpayable"},{"type":"function","name":"rescueTokens","inputs":[{"name":"token","type":"address","internalType":"address"},{"name":"to","type":"address","internalType":"address"},{"name":"amount","type":"uint256","internalType":"uint256"}],"outputs":[],"stateMutability":"nonpayable"},{"type":"function","name":"setFee","inputs":[{"name":"newFee","type":"uint256","internalType":"uint256"}],"outputs":[],"stateMutability":"nonpayable"},{"type":"function","name":"setFeeRecipient","inputs":[{"name":"newRecipient","type":"address","internalType":"address"}],"outputs":[],"stateMutability":"nonpayable"},{"type":"function","name":"swap","inputs":[{"name":"tokenIn","type":"address","internalType":"address"},{"name":"tokenOut","type":"address","internalType":"address"},{"name":"amountIn","type":"uint256","internalType":"uint256"},{"name":"minAmountOut","type":"uint256","internalType":"uint256"}],"outputs":[{"name":"amountOut","type":"uint256","internalType":"uint256"}],"stateMutability":"payable"},{"type":"function","name":"swapRouter","inputs":[],"outputs":[{"name":"","type":"address","internalType":"contract ISwapRouter"}],"stateMutability":"view"},{"type":"function","name":"transferOwnership","inputs":[{"name":"newOwner","type":"address","internalType":"address"}],"outputs":[],"stateMutability":"nonpayable"},{"type":"function","name":"unpause","inputs":[],"outputs":[],"stateMutability":"nonpayable"},{"type":"event","name":"FeeChanged","inputs":[{"name":"oldFee","type":"uint256","indexed":true,"internalType":"uint256"},{"name":"newFee","type":"uint256","indexed":true,"internalType":"uint256"},{"name":"time","type":"uint256","indexed":true,"internalType":"uint256"}],"anonymous":false},{"type":"event","name":"OwnershipTransferred","inputs":[{"name":"previousOwner","type":"address","indexed":true,"internalType":"address"},{"name":"newOwner","type":"address","indexed":true,"internalType":"address"}],"anonymous":false},{"type":"event","name":"Paused","inputs":[{"name":"account","type":"address","indexed":false,"internalType":"address"}],"anonymous":false},{"type":"event","name":"SwapExecuted","inputs":[{"name":"user","type":"address","indexed":true,"internalType":"address"},{"name":"tokenIn","type":"address","indexed":false,"internalType":"address"},{"name":"tokenOut","type":"address","indexed":false,"internalType":"address"},{"name":"amountIn","type":"uint256","indexed":false,"internalType":"uint256"},{"name":"amountOut","type":"uint256","indexed":false,"internalType":"uint256"},{"name":"feeAmount","type":"uint256","indexed":false,"internalType":"uint256"},{"name":"time","type":"uint256","indexed":false,"internalType":"uint256"}],"anonymous":false},{"type":"event","name":"Unpaused","inputs":[{"name":"account","type":"address","indexed":false,"internalType":"address"}],"anonymous":false},{"type":"event","name":"recipientChanged","inputs":[{"name":"oldRecipient","type":"address","indexed":true,"internalType":"address"},{"name":"newRecipient","type":"address","indexed":true,"internalType":"address"},{"name":"time","type":"uint256","indexed":true,"internalType":"uint256"}],"anonymous":false},{"type":"error","name":"EnforcedPause","inputs":[]},{"type":"error","name":"ExpectedPause","inputs":[]},{"type":"error","name":"OwnableInvalidOwner","inputs":[{"name":"owner","type":"address","internalType":"address"}]},{"type":"error","name":"OwnableUnauthorizedAccount","inputs":[{"name":"account","type":"address","internalType":"address"}]},{"type":"error","name":"ReentrancyGuardReentrantCall","inputs":[]},{"type":"error","name":"SafeERC20FailedOperation","inputs":[{"name":"token","type":"address","internalType":"address"}]}],"bytecode":{"object":"0x60a060405234801561000f575f5ffd5b50604051611968380380611968833981810160405281019061003191906102ca565b335f73ffffffffffffffffffffffffffffffffffffffff168173ffffffffffffffffffffffffffffffffffffffff16036100a2575f6040517f1e4fbdf70000000000000000000000000000000000000000000000000000000081526004016100999190610329565b60405180910390fd5b6100b18161013d60201b60201c565b50600180819055508273ffffffffffffffffffffffffffffffffffffffff1660808173ffffffffffffffffffffffffffffffffffffffff168152505080600260016101000a81548173ffffffffffffffffffffffffffffffffffffffff021916908373ffffffffffffffffffffffffffffffffffffffff16021790555081600381905550505050610342565b5f5f5f9054906101000a900473ffffffffffffffffffffffffffffffffffffffff169050815f5f6101000a81548173ffffffffffffffffffffffffffffffffffffffff021916908373ffffffffffffffffffffffffffffffffffffffff1602179055508173ffffffffffffffffffffffffffffffffffffffff168173ffffffffffffffffffffffffffffffffffffffff167f8be0079c531659141344cd1fd0a4f28419497f9722a3daafe3b4186f6b6457e060405160405180910390a35050565b5f5ffd5b5f73ffffffffffffffffffffffffffffffffffffffff82169050919050565b5f61022b82610202565b9050919050565b5f61023c82610221565b9050919050565b61024c81610232565b8114610256575f5ffd5b50565b5f8151905061026781610243565b92915050565b5f819050919050565b61027f8161026d565b8114610289575f5ffd5b50565b5f8151905061029a81610276565b92915050565b6102a981610221565b81146102b3575f5ffd5b50565b5f815190506102c4816102a0565b92915050565b5f5f5f606084860312156102e1576102e06101fe565b5b5f6102ee86828701610259565b93505060206102ff8682870161028c565b9250506040610310868287016102b6565b9150509250925092565b61032381610221565b82525050565b5f60208201905061033c5f83018461031a565b92915050565b6080516115f961036f5f395f81816103dd015281816107ce0152818161086a015261098601526115f95ff3fe6080604052600436106100dc575f3560e01c80638456cb591161007e578063cea9d26f11610058578063cea9d26f14610246578063e74b981b1461026e578063f2fde38b14610296578063fe029156146102be576100dc565b80638456cb59146101dc5780638da5cb5b146101f2578063c31c9c071461021c576100dc565b806346904840116100ba578063469048401461014a5780635c975abb1461017457806369fe0e2d1461019e578063715018a6146101c6576100dc565b8063089fe6aa146100e057806324a9d8531461010a5780633f4ba83a14610134575b5f5ffd5b3480156100eb575f5ffd5b506100f46102ee565b6040516101019190610f75565b60405180910390f35b348015610115575f5ffd5b5061011e6102f4565b60405161012b9190610fa6565b60405180910390f35b34801561013f575f5ffd5b506101486102fa565b005b348015610155575f5ffd5b5061015e61030c565b60405161016b9190610ffe565b60405180910390f35b34801561017f575f5ffd5b50610188610332565b6040516101959190611031565b60405180910390f35b3480156101a9575f5ffd5b506101c460048036038101906101bf9190611078565b610347565b005b3480156101d1575f5ffd5b506101da61038f565b005b3480156101e7575f5ffd5b506101f06103a2565b005b3480156101fd575f5ffd5b506102066103b4565b6040516102139190610ffe565b60405180910390f35b348015610227575f5ffd5b506102306103db565b60405161023d91906110fe565b60405180910390f35b348015610251575f5ffd5b5061026c60048036038101906102679190611141565b6103ff565b005b348015610279575f5ffd5b50610294600480360381019061028f9190611191565b610437565b005b3480156102a1575f5ffd5b506102bc60048036038101906102b79190611191565b610505565b005b6102d860048036038101906102d391906111bc565b610589565b6040516102e59190610fa6565b60405180910390f35b610bb881565b60035481565b610302610ab7565b61030a610b3e565b565b600260019054906101000a900473ffffffffffffffffffffffffffffffffffffffff1681565b5f60025f9054906101000a900460ff16905090565b61034f610ab7565b5f6003549050816003819055504282827f91c52d7e3437bc917e155cb9a0148c1ec719a07f87330f08c8522cfb7f99bae660405160405180910390a45050565b610397610ab7565b6103a05f610b9f565b565b6103aa610ab7565b6103b2610c60565b565b5f5f5f9054906101000a900473ffffffffffffffffffffffffffffffffffffffff16905090565b7f000000000000000000000000000000000000000000000000000000000000000081565b610407610ab7565b61043282828573ffffffffffffffffffffffffffffffffffffffff16610cc29092919063ffffffff16565b505050565b61043f610ab7565b5f600260019054906101000a900473ffffffffffffffffffffffffffffffffffffffff16905081600260016101000a81548173ffffffffffffffffffffffffffffffffffffffff021916908373ffffffffffffffffffffffffffffffffffffffff160217905550428273ffffffffffffffffffffffffffffffffffffffff168273ffffffffffffffffffffffffffffffffffffffff167fd78624b6eea018b8372db241bcf550bd1a6a15843ecc3cd39761ab33277497d560405160405180910390a45050565b61050d610ab7565b5f73ffffffffffffffffffffffffffffffffffffffff168173ffffffffffffffffffffffffffffffffffffffff160361057d575f6040517f1e4fbdf70000000000000000000000000000000000000000000000000000000081526004016105749190610ffe565b60405180910390fd5b61058681610b9f565b50565b5f610592610d41565b61059a610d87565b5f8590505f8590505f6105ac86610dc8565b90506105e6333083896105bf919061124d565b8673ffffffffffffffffffffffffffffffffffffffff16610deb909392919063ffffffff16565b5f600260019054906101000a900473ffffffffffffffffffffffffffffffffffffffff1690508373ffffffffffffffffffffffffffffffffffffffff1663095ea7b3600260019054906101000a900473ffffffffffffffffffffffffffffffffffffffff165f6040518363ffffffff1660e01b81526004016106699291906112b9565b6020604051808303815f875af1158015610685573d5f5f3e3d5ffd5b505050506040513d601f19601f820116820180604052508101906106a9919061130a565b508373ffffffffffffffffffffffffffffffffffffffff1663095ea7b3600260019054906101000a900473ffffffffffffffffffffffffffffffffffffffff16846040518363ffffffff1660e01b8152600401610707929190611335565b6020604051808303815f875af1158015610723573d5f5f3e3d5ffd5b505050506040513d601f19601f82011682018060405250810190610747919061130a565b508073ffffffffffffffffffffffffffffffffffffffff166397235a1e85846040518363ffffffff1660e01b8152600401610783929190611335565b5f604051808303815f87803b15801561079a575f5ffd5b505af11580156107ac573d5f5f3e3d5ffd5b505050508873ffffffffffffffffffffffffffffffffffffffff1663095ea7b37f00000000000000000000000000000000000000000000000000000000000000005f6040518363ffffffff1660e01b815260040161080b9291906112b9565b6020604051808303815f875af1158015610827573d5f5f3e3d5ffd5b505050506040513d601f19601f8201168201806040525081019061084b919061130a565b508873ffffffffffffffffffffffffffffffffffffffff1663095ea7b37f0000000000000000000000000000000000000000000000000000000000000000896040518363ffffffff1660e01b81526004016108a7929190611335565b6020604051808303815f875af11580156108c3573d5f5f3e3d5ffd5b505050506040513d601f19601f820116820180604052508101906108e7919061130a565b505f6040518061010001604052808b73ffffffffffffffffffffffffffffffffffffffff1681526020018a73ffffffffffffffffffffffffffffffffffffffff168152602001610bb862ffffff1681526020013073ffffffffffffffffffffffffffffffffffffffff1681526020014281526020018981526020018881526020015f73ffffffffffffffffffffffffffffffffffffffff1681525090507f000000000000000000000000000000000000000000000000000000000000000073ffffffffffffffffffffffffffffffffffffffff1663414bf389826040518263ffffffff1660e01b81526004016109dd9190611438565b6020604051808303815f875af11580156109f9573d5f5f3e3d5ffd5b505050506040513d601f19601f82011682018060405250810190610a1d9190611466565b9550610a4a33878673ffffffffffffffffffffffffffffffffffffffff16610cc29092919063ffffffff16565b3373ffffffffffffffffffffffffffffffffffffffff167f43415e25edb52db0638ec44209302ce9df6ab6fa46a2233aee34f9c75471ea268b8b8b8a8842604051610a9a96959493929190611491565b60405180910390a25050505050610aaf610e6d565b949350505050565b610abf610e76565b73ffffffffffffffffffffffffffffffffffffffff16610add6103b4565b73ffffffffffffffffffffffffffffffffffffffff1614610b3c57610b00610e76565b6040517f118cdaa7000000000000000000000000000000000000000000000000000000008152600401610b339190610ffe565b60405180910390fd5b565b610b46610e7d565b5f60025f6101000a81548160ff0219169083151502179055507f5db9ee0a495bf2e6ff9c91a7834c1ba4fdd244a5e8aa4e537bd38aeae4b073aa610b88610e76565b604051610b959190610ffe565b60405180910390a1565b5f5f5f9054906101000a900473ffffffffffffffffffffffffffffffffffffffff169050815f5f6101000a81548173ffffffffffffffffffffffffffffffffffffffff021916908373ffffffffffffffffffffffffffffffffffffffff1602179055508173ffffffffffffffffffffffffffffffffffffffff168173ffffffffffffffffffffffffffffffffffffffff167f8be0079c531659141344cd1fd0a4f28419497f9722a3daafe3b4186f6b6457e060405160405180910390a35050565b610c68610d87565b600160025f6101000a81548160ff0219169083151502179055507f62e78cea01bee320cd4e420270b5ea74000d11b0c9f74754ebdbfc544b05a258610cab610e76565b604051610cb89190610ffe565b60405180910390a1565b610d3c838473ffffffffffffffffffffffffffffffffffffffff1663a9059cbb8585604051602401610cf5929190611335565b604051602081830303815290604052915060e01b6020820180517bffffffffffffffffffffffffffffffffffffffffffffffffffffffff8381831617835250505050610ebd565b505050565b600260015403610d7d576040517f3ee5aeb500000000000000000000000000000000000000000000000000000000815260040160405180910390fd5b6002600181905550565b610d8f610332565b15610dc6576040517fd93c066500000000000000000000000000000000000000000000000000000000815260040160405180910390fd5b565b5f61271060035483610dda91906114f0565b610de4919061155e565b9050919050565b610e67848573ffffffffffffffffffffffffffffffffffffffff166323b872dd868686604051602401610e209392919061158e565b604051602081830303815290604052915060e01b6020820180517bffffffffffffffffffffffffffffffffffffffffffffffffffffffff8381831617835250505050610ebd565b50505050565b60018081905550565b5f33905090565b610e85610332565b610ebb576040517f8dfc202b00000000000000000000000000000000000000000000000000000000815260040160405180910390fd5b565b5f5f60205f8451602086015f885af180610edc576040513d5f823e3d81fd5b3d92505f519150505f8214610ef5576001811415610f10565b5f8473ffffffffffffffffffffffffffffffffffffffff163b145b15610f5257836040517f5274afe7000000000000000000000000000000000000000000000000000000008152600401610f499190610ffe565b60405180910390fd5b50505050565b5f62ffffff82169050919050565b610f6f81610f58565b82525050565b5f602082019050610f885f830184610f66565b92915050565b5f819050919050565b610fa081610f8e565b82525050565b5f602082019050610fb95f830184610f97565b92915050565b5f73ffffffffffffffffffffffffffffffffffffffff82169050919050565b5f610fe882610fbf565b9050919050565b610ff881610fde565b82525050565b5f6020820190506110115f830184610fef565b92915050565b5f8115159050919050565b61102b81611017565b82525050565b5f6020820190506110445f830184611022565b92915050565b5f5ffd5b61105781610f8e565b8114611061575f5ffd5b50565b5f813590506110728161104e565b92915050565b5f6020828403121561108d5761108c61104a565b5b5f61109a84828501611064565b91505092915050565b5f819050919050565b5f6110c66110c16110bc84610fbf565b6110a3565b610fbf565b9050919050565b5f6110d7826110ac565b9050919050565b5f6110e8826110cd565b9050919050565b6110f8816110de565b82525050565b5f6020820190506111115f8301846110ef565b92915050565b61112081610fde565b811461112a575f5ffd5b50565b5f8135905061113b81611117565b92915050565b5f5f5f606084860312156111585761115761104a565b5b5f6111658682870161112d565b93505060206111768682870161112d565b925050604061118786828701611064565b9150509250925092565b5f602082840312156111a6576111a561104a565b5b5f6111b38482850161112d565b91505092915050565b5f5f5f5f608085870312156111d4576111d361104a565b5b5f6111e18782880161112d565b94505060206111f28782880161112d565b935050604061120387828801611064565b925050606061121487828801611064565b91505092959194509250565b7f4e487b71000000000000000000000000000000000000000000000000000000005f52601160045260245ffd5b5f61125782610f8e565b915061126283610f8e565b925082820190508082111561127a57611279611220565b5b92915050565b5f819050919050565b5f6112a361129e61129984611280565b6110a3565b610f8e565b9050919050565b6112b381611289565b82525050565b5f6040820190506112cc5f830185610fef565b6112d960208301846112aa565b9392505050565b6112e981611017565b81146112f3575f5ffd5b50565b5f81519050611304816112e0565b92915050565b5f6020828403121561131f5761131e61104a565b5b5f61132c848285016112f6565b91505092915050565b5f6040820190506113485f830185610fef565b6113556020830184610f97565b9392505050565b61136581610fde565b82525050565b61137481610f58565b82525050565b61138381610f8e565b82525050565b61139281610fbf565b82525050565b61010082015f8201516113ad5f85018261135c565b5060208201516113c0602085018261135c565b5060408201516113d3604085018261136b565b5060608201516113e6606085018261135c565b5060808201516113f9608085018261137a565b5060a082015161140c60a085018261137a565b5060c082015161141f60c085018261137a565b5060e082015161143260e0850182611389565b50505050565b5f6101008201905061144c5f830184611398565b92915050565b5f815190506114608161104e565b92915050565b5f6020828403121561147b5761147a61104a565b5b5f61148884828501611452565b91505092915050565b5f60c0820190506114a45f830189610fef565b6114b16020830188610fef565b6114be6040830187610f97565b6114cb6060830186610f97565b6114d86080830185610f97565b6114e560a0830184610f97565b979650505050505050565b5f6114fa82610f8e565b915061150583610f8e565b925082820261151381610f8e565b9150828204841483151761152a57611529611220565b5b5092915050565b7f4e487b71000000000000000000000000000000000000000000000000000000005f52601260045260245ffd5b5f61156882610f8e565b915061157383610f8e565b92508261158357611582611531565b5b828204905092915050565b5f6060820190506115a15f830186610fef565b6115ae6020830185610fef565b6115bb6040830184610f97565b94935050505056fea2646970667358221220fe7cddeb66a6ed804716844079c0a4dac9a742ce7a0b7bf2523f0437a43b8a1a64736f6c634300081e0033","linkReferences":{}},"methodIdentifiers":{"feeBps()":"24a9d853","feeRecipient()":"46904840","owner()":"8da5cb5b","pause()":"8456cb59","paused()":"5c975abb","poolFee()":"089fe6aa","renounceOwnership()":"715018a6","rescueTokens(address,address,uint256)":"cea9d26f","setFee(uint256)":"69fe0e2d","setFeeRecipient(address)":"e74b981b","swap(address,address,uint256,uint256)":"fe029156","swapRouter()":"c31c9c07","transferOwnership(address)":"f2fde38b","unpause()":"3f4ba83a"},"id":39}